{
  "contractName": "FurionPool",
  "abi": [
    {
      "inputs": [
        {
          "internalType": "contract FUSD",
          "name": "_fUSD",
          "type": "address"
        },
        {
          "internalType": "uint256",
          "name": "_stakeFeeRate",
          "type": "uint256"
        },
        {
          "internalType": "uint256",
          "name": "_lockFeeRate",
          "type": "uint256"
        },
        {
          "internalType": "uint256",
          "name": "_lockBlockCharge",
          "type": "uint256"
        }
      ],
      "stateMutability": "nonpayable",
      "type": "constructor"
    },
    {
      "anonymous": false,
      "inputs": [
        {
          "indexed": false,
          "internalType": "contract LocalOracle",
          "name": "oracle",
          "type": "address"
        }
      ],
      "name": "LinkOracle",
      "type": "event"
    },
    {
      "anonymous": false,
      "inputs": [
        {
          "indexed": true,
          "internalType": "address",
          "name": "_from",
          "type": "address"
        },
        {
          "indexed": false,
          "internalType": "address",
          "name": "_nftAddress",
          "type": "address"
        },
        {
          "indexed": false,
          "internalType": "uint256",
          "name": "_tokenId",
          "type": "uint256"
        },
        {
          "indexed": false,
          "internalType": "uint256",
          "name": "_value",
          "type": "uint256"
        }
      ],
      "name": "LockNFT",
      "type": "event"
    },
    {
      "anonymous": false,
      "inputs": [
        {
          "indexed": true,
          "internalType": "address",
          "name": "_locker",
          "type": "address"
        },
        {
          "indexed": false,
          "internalType": "address",
          "name": "_nftAddress",
          "type": "address"
        },
        {
          "indexed": false,
          "internalType": "uint256",
          "name": "_tokenId",
          "type": "uint256"
        }
      ],
      "name": "ReleaseNFT",
      "type": "event"
    },
    {
      "anonymous": false,
      "inputs": [
        {
          "indexed": true,
          "internalType": "address",
          "name": "_from",
          "type": "address"
        },
        {
          "indexed": false,
          "internalType": "address",
          "name": "_nftAddress",
          "type": "address"
        },
        {
          "indexed": false,
          "internalType": "uint256",
          "name": "_tokenId",
          "type": "uint256"
        },
        {
          "indexed": false,
          "internalType": "uint256",
          "name": "_value",
          "type": "uint256"
        }
      ],
      "name": "StakeNFT",
      "type": "event"
    },
    {
      "anonymous": false,
      "inputs": [
        {
          "indexed": true,
          "internalType": "address",
          "name": "_to",
          "type": "address"
        },
        {
          "indexed": false,
          "internalType": "address",
          "name": "_nftAddress",
          "type": "address"
        },
        {
          "indexed": false,
          "internalType": "uint256",
          "name": "_tokenId",
          "type": "uint256"
        },
        {
          "indexed": false,
          "internalType": "uint256",
          "name": "_value",
          "type": "uint256"
        }
      ],
      "name": "WithdrawNFT",
      "type": "event"
    },
    {
      "inputs": [
        {
          "internalType": "bytes32",
          "name": "",
          "type": "bytes32"
        }
      ],
      "name": "LockedBlockNumber",
      "outputs": [
        {
          "internalType": "uint256",
          "name": "",
          "type": "uint256"
        }
      ],
      "stateMutability": "view",
      "type": "function",
      "constant": true
    },
    {
      "inputs": [
        {
          "internalType": "bytes32",
          "name": "",
          "type": "bytes32"
        }
      ],
      "name": "LockedInPool",
      "outputs": [
        {
          "internalType": "bool",
          "name": "",
          "type": "bool"
        }
      ],
      "stateMutability": "view",
      "type": "function",
      "constant": true
    },
    {
      "inputs": [
        {
          "internalType": "bytes32",
          "name": "",
          "type": "bytes32"
        }
      ],
      "name": "Locker",
      "outputs": [
        {
          "internalType": "address",
          "name": "",
          "type": "address"
        }
      ],
      "stateMutability": "view",
      "type": "function",
      "constant": true
    },
    {
      "inputs": [
        {
          "internalType": "bytes32",
          "name": "",
          "type": "bytes32"
        }
      ],
      "name": "StakedInPool",
      "outputs": [
        {
          "internalType": "bool",
          "name": "",
          "type": "bool"
        }
      ],
      "stateMutability": "view",
      "type": "function",
      "constant": true
    },
    {
      "inputs": [],
      "name": "fUSD",
      "outputs": [
        {
          "internalType": "contract FUSD",
          "name": "",
          "type": "address"
        }
      ],
      "stateMutability": "view",
      "type": "function",
      "constant": true
    },
    {
      "inputs": [],
      "name": "lockBlockCharge",
      "outputs": [
        {
          "internalType": "uint256",
          "name": "",
          "type": "uint256"
        }
      ],
      "stateMutability": "view",
      "type": "function",
      "constant": true
    },
    {
      "inputs": [],
      "name": "lockFeeRate",
      "outputs": [
        {
          "internalType": "uint256",
          "name": "",
          "type": "uint256"
        }
      ],
      "stateMutability": "view",
      "type": "function",
      "constant": true
    },
    {
      "inputs": [
        {
          "internalType": "address",
          "name": "",
          "type": "address"
        },
        {
          "internalType": "address",
          "name": "",
          "type": "address"
        },
        {
          "internalType": "uint256",
          "name": "",
          "type": "uint256"
        }
      ],
      "name": "lockingNFT",
      "outputs": [
        {
          "internalType": "uint256",
          "name": "",
          "type": "uint256"
        }
      ],
      "stateMutability": "view",
      "type": "function",
      "constant": true
    },
    {
      "inputs": [],
      "name": "name",
      "outputs": [
        {
          "internalType": "string",
          "name": "",
          "type": "string"
        }
      ],
      "stateMutability": "view",
      "type": "function",
      "constant": true
    },
    {
      "inputs": [],
      "name": "oracle",
      "outputs": [
        {
          "internalType": "contract LocalOracle",
          "name": "",
          "type": "address"
        }
      ],
      "stateMutability": "view",
      "type": "function",
      "constant": true
    },
    {
      "inputs": [],
      "name": "owner",
      "outputs": [
        {
          "internalType": "address",
          "name": "",
          "type": "address"
        }
      ],
      "stateMutability": "view",
      "type": "function",
      "constant": true
    },
    {
      "inputs": [],
      "name": "stakeFeeRate",
      "outputs": [
        {
          "internalType": "uint256",
          "name": "",
          "type": "uint256"
        }
      ],
      "stateMutability": "view",
      "type": "function",
      "constant": true
    },
    {
      "inputs": [
        {
          "internalType": "address",
          "name": "",
          "type": "address"
        },
        {
          "internalType": "uint256",
          "name": "",
          "type": "uint256"
        }
      ],
      "name": "stakingNFT",
      "outputs": [
        {
          "internalType": "uint256",
          "name": "",
          "type": "uint256"
        }
      ],
      "stateMutability": "view",
      "type": "function",
      "constant": true
    },
    {
      "inputs": [
        {
          "internalType": "contract LocalOracle",
          "name": "_oracle",
          "type": "address"
        }
      ],
      "name": "linkOracle",
      "outputs": [],
      "stateMutability": "nonpayable",
      "type": "function"
    },
    {
      "inputs": [
        {
          "internalType": "address",
          "name": "_nftAddress",
          "type": "address"
        },
        {
          "internalType": "uint256",
          "name": "_tokenId",
          "type": "uint256"
        }
      ],
      "name": "stakeNFT",
      "outputs": [],
      "stateMutability": "nonpayable",
      "type": "function"
    },
    {
      "inputs": [
        {
          "internalType": "address",
          "name": "_nftAddress",
          "type": "address"
        },
        {
          "internalType": "uint256",
          "name": "_tokenId",
          "type": "uint256"
        }
      ],
      "name": "unstakeNFT",
      "outputs": [],
      "stateMutability": "nonpayable",
      "type": "function"
    },
    {
      "inputs": [
        {
          "internalType": "address",
          "name": "_nftAddress",
          "type": "address"
        },
        {
          "internalType": "uint256",
          "name": "_tokenId",
          "type": "uint256"
        }
      ],
      "name": "lockNFT",
      "outputs": [],
      "stateMutability": "nonpayable",
      "type": "function"
    },
    {
      "inputs": [
        {
          "internalType": "address",
          "name": "_nftAddress",
          "type": "address"
        },
        {
          "internalType": "uint256",
          "name": "_tokenId",
          "type": "uint256"
        }
      ],
      "name": "unlockNFT",
      "outputs": [],
      "stateMutability": "nonpayable",
      "type": "function"
    },
    {
      "inputs": [
        {
          "internalType": "address",
          "name": "_nftAddress",
          "type": "address"
        },
        {
          "internalType": "uint256",
          "name": "_tokenId",
          "type": "uint256"
        }
      ],
      "name": "releaseNFT",
      "outputs": [],
      "stateMutability": "nonpayable",
      "type": "function"
    },
    {
      "inputs": [
        {
          "internalType": "address",
          "name": "_to",
          "type": "address"
        },
        {
          "internalType": "uint256",
          "name": "_amount",
          "type": "uint256"
        }
      ],
      "name": "allocate",
      "outputs": [],
      "stateMutability": "nonpayable",
      "type": "function"
    },
    {
      "inputs": [
        {
          "internalType": "uint256",
          "name": "_stakeFeeRate",
          "type": "uint256"
        }
      ],
      "name": "changeStakeFeeRate",
      "outputs": [],
      "stateMutability": "nonpayable",
      "type": "function"
    },
    {
      "inputs": [
        {
          "internalType": "uint256",
          "name": "_lockFeeRate",
          "type": "uint256"
        }
      ],
      "name": "changeLockDailyCharge",
      "outputs": [],
      "stateMutability": "nonpayable",
      "type": "function"
    },
    {
      "inputs": [
        {
          "internalType": "uint256",
          "name": "_lockBlockCharge",
          "type": "uint256"
        }
      ],
      "name": "changeLockFeeRate",
      "outputs": [],
      "stateMutability": "nonpayable",
      "type": "function"
    },
    {
      "inputs": [
        {
          "internalType": "address",
          "name": "_newOwner",
          "type": "address"
        }
      ],
      "name": "changeOwner",
      "outputs": [],
      "stateMutability": "nonpayable",
      "type": "function"
    },
    {
      "inputs": [
        {
          "internalType": "address",
          "name": "",
          "type": "address"
        },
        {
          "internalType": "address",
          "name": "",
          "type": "address"
        },
        {
          "internalType": "uint256",
          "name": "",
          "type": "uint256"
        },
        {
          "internalType": "bytes",
          "name": "",
          "type": "bytes"
        }
      ],
      "name": "onERC721Received",
      "outputs": [
        {
          "internalType": "bytes4",
          "name": "",
          "type": "bytes4"
        }
      ],
      "stateMutability": "nonpayable",
      "type": "function"
    },
    {
      "inputs": [
        {
          "internalType": "address",
          "name": "_nftAddress",
          "type": "address"
        }
      ],
      "name": "viewStakingNFT",
      "outputs": [
        {
          "internalType": "uint256[]",
          "name": "",
          "type": "uint256[]"
        }
      ],
      "stateMutability": "view",
      "type": "function",
      "constant": true
    },
    {
      "inputs": [
        {
          "internalType": "address",
          "name": "_userAddress",
          "type": "address"
        },
        {
          "internalType": "address",
          "name": "_nftAddress",
          "type": "address"
        }
      ],
      "name": "viewLockingNFT",
      "outputs": [
        {
          "internalType": "uint256[]",
          "name": "",
          "type": "uint256[]"
        }
      ],
      "stateMutability": "view",
      "type": "function",
      "constant": true
    }
  ],
  "bytecode": "0x60806040526040518060400160405280601281526020017f4e4654204c697175696469747920506f6f6c0000000000000000000000000000815250600090805190602001906200005192919062000141565b506008600160006101000a81548160ff021916908360ff1602179055503480156200007b57600080fd5b50604051620036b8380380620036b88339818101604052810190620000a191906200021f565b336001806101000a81548173ffffffffffffffffffffffffffffffffffffffff021916908373ffffffffffffffffffffffffffffffffffffffff16021790555083600360006101000a81548173ffffffffffffffffffffffffffffffffffffffff021916908373ffffffffffffffffffffffffffffffffffffffff1602179055508260048190555081600581905550806006819055505050505062000376565b8280546200014f90620002dd565b90600052602060002090601f016020900481019282620001735760008555620001bf565b82601f106200018e57805160ff1916838001178555620001bf565b82800160010185558215620001bf579182015b82811115620001be578251825591602001919060010190620001a1565b5b509050620001ce9190620001d2565b5090565b5b80821115620001ed576000816000905550600101620001d3565b5090565b600081519050620002028162000342565b92915050565b60008151905062000219816200035c565b92915050565b600080600080608085870312156200023657600080fd5b60006200024687828801620001f1565b9450506020620002598782880162000208565b93505060406200026c8782880162000208565b92505060606200027f8782880162000208565b91505092959194509250565b60006200029882620002b3565b9050919050565b6000620002ac826200028b565b9050919050565b600073ffffffffffffffffffffffffffffffffffffffff82169050919050565b6000819050919050565b60006002820490506001821680620002f657607f821691505b602082108114156200030d576200030c62000313565b5b50919050565b7f4e487b7100000000000000000000000000000000000000000000000000000000600052602260045260246000fd5b6200034d816200029f565b81146200035957600080fd5b50565b6200036781620002d3565b81146200037357600080fd5b50565b61333280620003866000396000f3fe608060405234801561001057600080fd5b50600436106101a95760003560e01c80639e0fd9da116100f9578063b78b52df11610097578063e89caf8f11610071578063e89caf8f146104ca578063f7a62b8e146104e8578063faf8209614610504578063ff2b853314610534576101a9565b8063b78b52df14610474578063bd0a7f5b14610490578063c6f84afa146104ae576101a9565b8063a9a71735116100d3578063a9a71735146103ee578063b13270d51461041e578063b17e7f891461043a578063b37850b814610456576101a9565b80639e0fd9da146103725780639e3f9860146103a2578063a6f9dae1146103d2576101a9565b80633a404917116101665780637dc0d1d0116101405780637dc0d1d0146102ea578063866729d5146103085780638da5cb5b146103385780639c1c97d714610356576101a9565b80633a404917146102965780636b7ef2ee146102b25780637c1db065146102ce576101a9565b806306fdde03146101ae578063094e23f9146101cc578063150b7a02146101ea578063174656cb1461021a5780632672c0021461024a57806328d89d7214610266575b600080fd5b6101b6610564565b6040516101c39190612944565b60405180910390f35b6101d46105f2565b6040516101e1919061290e565b60405180910390f35b61020460048036038101906101ff91906123b0565b610618565b60405161021191906128f3565b60405180910390f35b610234600480360381019061022f91906122fc565b61062c565b60405161024191906128b6565b60405180910390f35b610264600480360381019061025f919061242b565b6106c3565b005b610280600480360381019061027b9190612361565b610b83565b60405161028d9190612aa6565b60405180910390f35b6102b060048036038101906102ab919061242b565b610bc1565b005b6102cc60048036038101906102c791906124b9565b611052565b005b6102e860048036038101906102e391906124e2565b61115b565b005b6102f26111f3565b6040516102ff9190612929565b60405180910390f35b610322600480360381019061031d919061242b565b611219565b60405161032f9190612aa6565b60405180910390f35b61034061124a565b60405161034d9190612804565b60405180910390f35b610370600480360381019061036b919061242b565b61126e565b005b61038c60048036038101906103879190612490565b611609565b60405161039991906128d8565b60405180910390f35b6103bc60048036038101906103b79190612490565b611629565b6040516103c99190612804565b60405180910390f35b6103ec60048036038101906103e791906122fc565b61165c565b005b61040860048036038101906104039190612325565b61172d565b60405161041591906128b6565b60405180910390f35b6104386004803603810190610433919061242b565b611802565b005b610454600480360381019061044f91906124e2565b611bf2565b005b61045e611c8a565b60405161046b9190612aa6565b60405180910390f35b61048e6004803603810190610489919061242b565b611c90565b005b610498611dd2565b6040516104a59190612aa6565b60405180910390f35b6104c860048036038101906104c3919061242b565b611dd8565b005b6104d2612140565b6040516104df9190612aa6565b60405180910390f35b61050260048036038101906104fd91906124e2565b612146565b005b61051e60048036038101906105199190612490565b6121de565b60405161052b9190612aa6565b60405180910390f35b61054e60048036038101906105499190612490565b6121f6565b60405161055b91906128d8565b60405180910390f35b6000805461057190612ee8565b80601f016020809104026020016040519081016040528092919081815260200182805461059d90612ee8565b80156105ea5780601f106105bf576101008083540402835291602001916105ea565b820191906000526020600020905b8154815290600101906020018083116105cd57829003601f168201915b505050505081565b600360009054906101000a900473ffffffffffffffffffffffffffffffffffffffff1681565b600063150b7a0260e01b9050949350505050565b6060600c60008373ffffffffffffffffffffffffffffffffffffffff1673ffffffffffffffffffffffffffffffffffffffff1681526020019081526020016000208054806020026020016040519081016040528092919081815260200182805480156106b757602002820191906000526020600020905b8154815260200190600101908083116106a3575b50505050509050919050565b600082826040516020016106d89291906127d8565b6040516020818303038152906040528051906020012090506008600082815260200190815260200160002060009054906101000a900460ff16610750576040517f08c379a000000000000000000000000000000000000000000000000000000000815260040161074790612986565b60405180910390fd5b3373ffffffffffffffffffffffffffffffffffffffff16600a600083815260200190815260200160002060009054906101000a900473ffffffffffffffffffffffffffffffffffffffff1673ffffffffffffffffffffffffffffffffffffffff16146107f1576040517f08c379a00000000000000000000000000000000000000000000000000000000081526004016107e8906129c6565b60405180910390fd5b6000600260009054906101000a900473ffffffffffffffffffffffffffffffffffffffff1673ffffffffffffffffffffffffffffffffffffffff16633aac0ebe85856040518363ffffffff1660e01b8152600401610850929190612856565b60206040518083038186803b15801561086857600080fd5b505afa15801561087c573d6000803e3d6000fd5b505050506040513d601f19601f820116820180604052508101906108a0919061250b565b9050600081116108e5576040517f08c379a00000000000000000000000000000000000000000000000000000000081526004016108dc90612a26565b60405180910390fd5b60008160065460096000868152602001908152602001600020544361090a9190612d8d565b6109149190612d33565b61091e9190612d33565b90506000600160009054906101000a900460ff16600a61093e9190612c15565b836109499190612d33565b826109549190612b6c565b9050600360009054906101000a900473ffffffffffffffffffffffffffffffffffffffff1673ffffffffffffffffffffffffffffffffffffffff166379cc679033836040518363ffffffff1660e01b81526004016109b3929190612856565b600060405180830381600087803b1580156109cd57600080fd5b505af11580156109e1573d6000803e3d6000fd5b5050505060008690508073ffffffffffffffffffffffffffffffffffffffff166342842e0e3033896040518463ffffffff1660e01b8152600401610a279392919061281f565b600060405180830381600087803b158015610a4157600080fd5b505af1158015610a55573d6000803e3d6000fd5b50505050600b60003373ffffffffffffffffffffffffffffffffffffffff1673ffffffffffffffffffffffffffffffffffffffff16815260200190815260200160002060008873ffffffffffffffffffffffffffffffffffffffff1673ffffffffffffffffffffffffffffffffffffffff16815260200190815260200160002086908060018154018082558091505060019003906000526020600020016000909190919091505560006008600087815260200190815260200160002060006101000a81548160ff0219169083151502179055503373ffffffffffffffffffffffffffffffffffffffff167f0127a8d3f57942833f6930572bce52ad882683e36eeb5830d199d3fa4bfa9467888885604051610b729392919061287f565b60405180910390a250505050505050565b600b6020528260005260406000206020528160005260406000208181548110610bab57600080fd5b9060005260206000200160009250925050505481565b60008290508073ffffffffffffffffffffffffffffffffffffffff166342842e0e3330856040518463ffffffff1660e01b8152600401610c039392919061281f565b600060405180830381600087803b158015610c1d57600080fd5b505af1158015610c31573d6000803e3d6000fd5b5050505060008383604051602001610c4a9291906127d8565b60405160208183030381529060405280519060200120905060016008600083815260200190815260200160002060006101000a81548160ff02191690831515021790555033600a600083815260200190815260200160002060006101000a81548173ffffffffffffffffffffffffffffffffffffffff021916908373ffffffffffffffffffffffffffffffffffffffff160217905550436009600083815260200190815260200160002081905550600b60003373ffffffffffffffffffffffffffffffffffffffff1673ffffffffffffffffffffffffffffffffffffffff16815260200190815260200160002060008573ffffffffffffffffffffffffffffffffffffffff1673ffffffffffffffffffffffffffffffffffffffff1681526020019081526020016000208390806001815401808255809150506001900390600052602060002001600090919091909150556000600260009054906101000a900473ffffffffffffffffffffffffffffffffffffffff1673ffffffffffffffffffffffffffffffffffffffff16633aac0ebe86866040518363ffffffff1660e01b8152600401610dfa929190612856565b60206040518083038186803b158015610e1257600080fd5b505afa158015610e26573d6000803e3d6000fd5b505050506040513d601f19601f82011682018060405250810190610e4a919061250b565b905060008111610e8f576040517f08c379a0000000000000000000000000000000000000000000000000000000008152600401610e8690612a26565b60405180910390fd5b600060055482610e9f9190612d33565b90506000600554600160009054906101000a900460ff16600a610ec29190612c15565b610ecc9190612d8d565b83610ed79190612d33565b9050600360009054906101000a900473ffffffffffffffffffffffffffffffffffffffff1673ffffffffffffffffffffffffffffffffffffffff166340c10f1930846040518363ffffffff1660e01b8152600401610f36929190612856565b600060405180830381600087803b158015610f5057600080fd5b505af1158015610f64573d6000803e3d6000fd5b50505050600360009054906101000a900473ffffffffffffffffffffffffffffffffffffffff1673ffffffffffffffffffffffffffffffffffffffff166340c10f1933836040518363ffffffff1660e01b8152600401610fc5929190612856565b600060405180830381600087803b158015610fdf57600080fd5b505af1158015610ff3573d6000803e3d6000fd5b505050503373ffffffffffffffffffffffffffffffffffffffff167fa43f10d9a3f0a6a57d9bc7ad1f3771ff8d4aa608b04ae06d3a9940a95eae2c898888846040516110419392919061287f565b60405180910390a250505050505050565b60018054906101000a900473ffffffffffffffffffffffffffffffffffffffff1673ffffffffffffffffffffffffffffffffffffffff163373ffffffffffffffffffffffffffffffffffffffff16146110e0576040517f08c379a00000000000000000000000000000000000000000000000000000000081526004016110d790612a46565b60405180910390fd5b80600260006101000a81548173ffffffffffffffffffffffffffffffffffffffff021916908373ffffffffffffffffffffffffffffffffffffffff1602179055507fa03cb14706d6b411defb9e553b8a9318ece0ac9e57bf13e028a1dad41450c7b2816040516111509190612929565b60405180910390a150565b60018054906101000a900473ffffffffffffffffffffffffffffffffffffffff1673ffffffffffffffffffffffffffffffffffffffff163373ffffffffffffffffffffffffffffffffffffffff16146111e9576040517f08c379a00000000000000000000000000000000000000000000000000000000081526004016111e090612a66565b60405180910390fd5b8060048190555050565b600260009054906101000a900473ffffffffffffffffffffffffffffffffffffffff1681565b600c602052816000526040600020818154811061123557600080fd5b90600052602060002001600091509150505481565b60018054906101000a900473ffffffffffffffffffffffffffffffffffffffff1681565b600082826040516020016112839291906127d8565b6040516020818303038152906040528051906020012090506007600082815260200190815260200160002060009054906101000a900460ff166112fb576040517f08c379a00000000000000000000000000000000000000000000000000000000081526004016112f290612a06565b60405180910390fd5b6000600260009054906101000a900473ffffffffffffffffffffffffffffffffffffffff1673ffffffffffffffffffffffffffffffffffffffff16633aac0ebe85856040518363ffffffff1660e01b815260040161135a929190612856565b60206040518083038186803b15801561137257600080fd5b505afa158015611386573d6000803e3d6000fd5b505050506040513d601f19601f820116820180604052508101906113aa919061250b565b9050600081116113ef576040517f08c379a00000000000000000000000000000000000000000000000000000000081526004016113e690612a26565b60405180910390fd5b6000600160009054906101000a900460ff16600a61140d9190612c15565b826114189190612d33565b9050600360009054906101000a900473ffffffffffffffffffffffffffffffffffffffff1673ffffffffffffffffffffffffffffffffffffffff166379cc679033836040518363ffffffff1660e01b8152600401611477929190612856565b600060405180830381600087803b15801561149157600080fd5b505af11580156114a5573d6000803e3d6000fd5b5050505060008590508073ffffffffffffffffffffffffffffffffffffffff166342842e0e3033886040518463ffffffff1660e01b81526004016114eb9392919061281f565b600060405180830381600087803b15801561150557600080fd5b505af1158015611519573d6000803e3d6000fd5b50505050600c60008773ffffffffffffffffffffffffffffffffffffffff1673ffffffffffffffffffffffffffffffffffffffff16815260200190815260200160002085908060018154018082558091505060019003906000526020600020016000909190919091505560006007600086815260200190815260200160002060006101000a81548160ff0219169083151502179055503373ffffffffffffffffffffffffffffffffffffffff167f0127a8d3f57942833f6930572bce52ad882683e36eeb5830d199d3fa4bfa94678787856040516115f99392919061287f565b60405180910390a2505050505050565b60086020528060005260406000206000915054906101000a900460ff1681565b600a6020528060005260406000206000915054906101000a900473ffffffffffffffffffffffffffffffffffffffff1681565b60018054906101000a900473ffffffffffffffffffffffffffffffffffffffff1673ffffffffffffffffffffffffffffffffffffffff163373ffffffffffffffffffffffffffffffffffffffff16146116ea576040517f08c379a00000000000000000000000000000000000000000000000000000000081526004016116e1906129a6565b60405180910390fd5b806001806101000a81548173ffffffffffffffffffffffffffffffffffffffff021916908373ffffffffffffffffffffffffffffffffffffffff16021790555050565b6060600b60008473ffffffffffffffffffffffffffffffffffffffff1673ffffffffffffffffffffffffffffffffffffffff16815260200190815260200160002060008373ffffffffffffffffffffffffffffffffffffffff1673ffffffffffffffffffffffffffffffffffffffff1681526020019081526020016000208054806020026020016040519081016040528092919081815260200182805480156117f557602002820191906000526020600020905b8154815260200190600101908083116117e1575b5050505050905092915050565b600033905060008390508073ffffffffffffffffffffffffffffffffffffffff166342842e0e3330866040518463ffffffff1660e01b81526004016118499392919061281f565b600060405180830381600087803b15801561186357600080fd5b505af1158015611877573d6000803e3d6000fd5b50505050600084846040516020016118909291906127d8565b60405160208183030381529060405280519060200120905060016007600083815260200190815260200160002060006101000a81548160ff0219169083151502179055506000600260009054906101000a900473ffffffffffffffffffffffffffffffffffffffff1673ffffffffffffffffffffffffffffffffffffffff16633aac0ebe87876040518363ffffffff1660e01b8152600401611933929190612856565b60206040518083038186803b15801561194b57600080fd5b505afa15801561195f573d6000803e3d6000fd5b505050506040513d601f19601f82011682018060405250810190611983919061250b565b9050600081116119c8576040517f08c379a00000000000000000000000000000000000000000000000000000000081526004016119bf90612a26565b60405180910390fd5b600c60008773ffffffffffffffffffffffffffffffffffffffff1673ffffffffffffffffffffffffffffffffffffffff168152602001908152602001600020859080600181540180825580915050600190039060005260206000200160009091909190915055600060045482611a3e9190612d33565b90506000600454600160009054906101000a900460ff16600a611a619190612c15565b611a6b9190612d8d565b83611a769190612d33565b9050600360009054906101000a900473ffffffffffffffffffffffffffffffffffffffff1673ffffffffffffffffffffffffffffffffffffffff166340c10f1987836040518363ffffffff1660e01b8152600401611ad5929190612856565b600060405180830381600087803b158015611aef57600080fd5b505af1158015611b03573d6000803e3d6000fd5b50505050600360009054906101000a900473ffffffffffffffffffffffffffffffffffffffff1673ffffffffffffffffffffffffffffffffffffffff166340c10f1930846040518363ffffffff1660e01b8152600401611b64929190612856565b600060405180830381600087803b158015611b7e57600080fd5b505af1158015611b92573d6000803e3d6000fd5b505050508573ffffffffffffffffffffffffffffffffffffffff167fb4f010c1d447300a6996242a1a4b8401b847c25c906beccd1d3ec9e2b504d26c898984604051611be09392919061287f565b60405180910390a25050505050505050565b60018054906101000a900473ffffffffffffffffffffffffffffffffffffffff1673ffffffffffffffffffffffffffffffffffffffff163373ffffffffffffffffffffffffffffffffffffffff1614611c80576040517f08c379a0000000000000000000000000000000000000000000000000000000008152600401611c7790612a66565b60405180910390fd5b8060068190555050565b60055481565b60018054906101000a900473ffffffffffffffffffffffffffffffffffffffff1673ffffffffffffffffffffffffffffffffffffffff163373ffffffffffffffffffffffffffffffffffffffff1614611d1e576040517f08c379a0000000000000000000000000000000000000000000000000000000008152600401611d15906129e6565b60405180910390fd5b600360009054906101000a900473ffffffffffffffffffffffffffffffffffffffff1673ffffffffffffffffffffffffffffffffffffffff1663a9059cbb83836040518363ffffffff1660e01b8152600401611d7b929190612856565b602060405180830381600087803b158015611d9557600080fd5b505af1158015611da9573d6000803e3d6000fd5b505050506040513d601f19601f82011682018060405250810190611dcd9190612467565b505050565b60045481565b60018054906101000a900473ffffffffffffffffffffffffffffffffffffffff1673ffffffffffffffffffffffffffffffffffffffff163373ffffffffffffffffffffffffffffffffffffffff1614611e66576040517f08c379a0000000000000000000000000000000000000000000000000000000008152600401611e5d90612a86565b60405180910390fd5b60008282604051602001611e7b9291906127d8565b6040516020818303038152906040528051906020012090506008600082815260200190815260200160002060009054906101000a900460ff16611ef3576040517f08c379a0000000000000000000000000000000000000000000000000000000008152600401611eea90612986565b60405180910390fd5b622dc6c0600960008381526020019081526020016000205443611f169190612d8d565b1015611f57576040517f08c379a0000000000000000000000000000000000000000000000000000000008152600401611f4e90612966565b60405180910390fd5b60006008600083815260200190815260200160002060006101000a81548160ff02191690831515021790555060016007600083815260200190815260200160002060006101000a81548160ff021916908315150217905550600b60003373ffffffffffffffffffffffffffffffffffffffff1673ffffffffffffffffffffffffffffffffffffffff16815260200190815260200160002060008473ffffffffffffffffffffffffffffffffffffffff1673ffffffffffffffffffffffffffffffffffffffff168152602001908152602001600020829080600181540180825580915050600190039060005260206000200160009091909190915055600c60008473ffffffffffffffffffffffffffffffffffffffff1673ffffffffffffffffffffffffffffffffffffffff168152602001908152602001600020829080600181540180825580915050600190039060005260206000200160009091909190915055600a600082815260200190815260200160002060009054906101000a900473ffffffffffffffffffffffffffffffffffffffff1673ffffffffffffffffffffffffffffffffffffffff167f7e0cf1677dac5a89718c29663824b0223c478301ed7f4a7aea7794997a0c9f638484604051612133929190612856565b60405180910390a2505050565b60065481565b60018054906101000a900473ffffffffffffffffffffffffffffffffffffffff1673ffffffffffffffffffffffffffffffffffffffff163373ffffffffffffffffffffffffffffffffffffffff16146121d4576040517f08c379a00000000000000000000000000000000000000000000000000000000081526004016121cb90612a66565b60405180910390fd5b8060058190555050565b60096020528060005260406000206000915090505481565b60076020528060005260406000206000915054906101000a900460ff1681565b600061222961222484612ae6565b612ac1565b90508281526020810184848401111561224157600080fd5b61224c848285612ea6565b509392505050565b60008135905061226381613289565b92915050565b600081519050612278816132a0565b92915050565b60008135905061228d816132b7565b92915050565b600082601f8301126122a457600080fd5b81356122b4848260208601612216565b91505092915050565b6000813590506122cc816132ce565b92915050565b6000813590506122e1816132e5565b92915050565b6000815190506122f6816132e5565b92915050565b60006020828403121561230e57600080fd5b600061231c84828501612254565b91505092915050565b6000806040838503121561233857600080fd5b600061234685828601612254565b925050602061235785828601612254565b9150509250929050565b60008060006060848603121561237657600080fd5b600061238486828701612254565b935050602061239586828701612254565b92505060406123a6868287016122d2565b9150509250925092565b600080600080608085870312156123c657600080fd5b60006123d487828801612254565b94505060206123e587828801612254565b93505060406123f6878288016122d2565b925050606085013567ffffffffffffffff81111561241357600080fd5b61241f87828801612293565b91505092959194509250565b6000806040838503121561243e57600080fd5b600061244c85828601612254565b925050602061245d858286016122d2565b9150509250929050565b60006020828403121561247957600080fd5b600061248784828501612269565b91505092915050565b6000602082840312156124a257600080fd5b60006124b08482850161227e565b91505092915050565b6000602082840312156124cb57600080fd5b60006124d9848285016122bd565b91505092915050565b6000602082840312156124f457600080fd5b6000612502848285016122d2565b91505092915050565b60006020828403121561251d57600080fd5b600061252b848285016122e7565b91505092915050565b600061254083836127a3565b60208301905092915050565b61255581612dc1565b82525050565b61256c61256782612dc1565b612f4b565b82525050565b600061257d82612b27565b6125878185612b4a565b935061259283612b17565b8060005b838110156125c35781516125aa8882612534565b97506125b583612b3d565b925050600181019050612596565b5085935050505092915050565b6125d981612dd3565b82525050565b6125e881612de9565b82525050565b6125f781612e5e565b82525050565b61260681612e82565b82525050565b600061261782612b32565b6126218185612b5b565b9350612631818560208601612eb5565b61263a81613006565b840191505092915050565b6000612652601783612b5b565b915061265d82613031565b602082019050919050565b6000612675601d83612b5b565b91506126808261305a565b602082019050919050565b6000612698602883612b5b565b91506126a382613083565b604082019050919050565b60006126bb602783612b5b565b91506126c6826130d2565b604082019050919050565b60006126de602583612b5b565b91506126e982613121565b604082019050919050565b6000612701601d83612b5b565b915061270c82613170565b602082019050919050565b6000612724601d83612b5b565b915061272f82613199565b602082019050919050565b6000612747601e83612b5b565b9150612752826131c2565b602082019050919050565b600061276a602783612b5b565b9150612775826131eb565b604082019050919050565b600061278d602a83612b5b565b91506127988261323a565b604082019050919050565b6127ac81612e47565b82525050565b6127bb81612e47565b82525050565b6127d26127cd82612e47565b612f6f565b82525050565b60006127e4828561255b565b6014820191506127f482846127c1565b6020820191508190509392505050565b6000602082019050612819600083018461254c565b92915050565b6000606082019050612834600083018661254c565b612841602083018561254c565b61284e60408301846127b2565b949350505050565b600060408201905061286b600083018561254c565b61287860208301846127b2565b9392505050565b6000606082019050612894600083018661254c565b6128a160208301856127b2565b6128ae60408301846127b2565b949350505050565b600060208201905081810360008301526128d08184612572565b905092915050565b60006020820190506128ed60008301846125d0565b92915050565b600060208201905061290860008301846125df565b92915050565b600060208201905061292360008301846125ee565b92915050565b600060208201905061293e60008301846125fd565b92915050565b6000602082019050818103600083015261295e818461260c565b905092915050565b6000602082019050818103600083015261297f81612645565b9050919050565b6000602082019050818103600083015261299f81612668565b9050919050565b600060208201905081810360008301526129bf8161268b565b9050919050565b600060208201905081810360008301526129df816126ae565b9050919050565b600060208201905081810360008301526129ff816126d1565b9050919050565b60006020820190508181036000830152612a1f816126f4565b9050919050565b60006020820190508181036000830152612a3f81612717565b9050919050565b60006020820190508181036000830152612a5f8161273a565b9050919050565b60006020820190508181036000830152612a7f8161275d565b9050919050565b60006020820190508181036000830152612a9f81612780565b9050919050565b6000602082019050612abb60008301846127b2565b92915050565b6000612acb612adc565b9050612ad78282612f1a565b919050565b6000604051905090565b600067ffffffffffffffff821115612b0157612b00612fd7565b5b612b0a82613006565b9050602081019050919050565b6000819050602082019050919050565b600081519050919050565b600081519050919050565b6000602082019050919050565b600082825260208201905092915050565b600082825260208201905092915050565b6000612b7782612e47565b9150612b8283612e47565b9250827fffffffffffffffffffffffffffffffffffffffffffffffffffffffffffffffff03821115612bb757612bb6612f79565b5b828201905092915050565b6000808291508390505b6001851115612c0c57808604811115612be857612be7612f79565b5b6001851615612bf75780820291505b8081029050612c0585613024565b9450612bcc565b94509492505050565b6000612c2082612e47565b9150612c2b83612e51565b9250612c587fffffffffffffffffffffffffffffffffffffffffffffffffffffffffffffffff8484612c60565b905092915050565b600082612c705760019050612d2c565b81612c7e5760009050612d2c565b8160018114612c945760028114612c9e57612ccd565b6001915050612d2c565b60ff841115612cb057612caf612f79565b5b8360020a915084821115612cc757612cc6612f79565b5b50612d2c565b5060208310610133831016604e8410600b8410161715612d025782820a905083811115612cfd57612cfc612f79565b5b612d2c565b612d0f8484846001612bc2565b92509050818404811115612d2657612d25612f79565b5b81810290505b9392505050565b6000612d3e82612e47565b9150612d4983612e47565b9250817fffffffffffffffffffffffffffffffffffffffffffffffffffffffffffffffff0483118215151615612d8257612d81612f79565b5b828202905092915050565b6000612d9882612e47565b9150612da383612e47565b925082821015612db657612db5612f79565b5b828203905092915050565b6000612dcc82612e27565b9050919050565b60008115159050919050565b6000819050919050565b60007fffffffff0000000000000000000000000000000000000000000000000000000082169050919050565b6000612e2082612dc1565b9050919050565b600073ffffffffffffffffffffffffffffffffffffffff82169050919050565b6000819050919050565b600060ff82169050919050565b6000612e6982612e70565b9050919050565b6000612e7b82612e27565b9050919050565b6000612e8d82612e94565b9050919050565b6000612e9f82612e27565b9050919050565b82818337600083830152505050565b60005b83811015612ed3578082015181840152602081019050612eb8565b83811115612ee2576000848401525b50505050565b60006002820490506001821680612f0057607f821691505b60208210811415612f1457612f13612fa8565b5b50919050565b612f2382613006565b810181811067ffffffffffffffff82111715612f4257612f41612fd7565b5b80604052505050565b6000612f5682612f5d565b9050919050565b6000612f6882613017565b9050919050565b6000819050919050565b7f4e487b7100000000000000000000000000000000000000000000000000000000600052601160045260246000fd5b7f4e487b7100000000000000000000000000000000000000000000000000000000600052602260045260246000fd5b7f4e487b7100000000000000000000000000000000000000000000000000000000600052604160045260246000fd5b6000601f19601f8301169050919050565b60008160601b9050919050565b60008160011c9050919050565b7f746865206c6f636b20697320737469696c2076616c6964000000000000000000600082015250565b7f746865204e4654206973206e6f74206c6f636b656420696e20706f6f6c000000600082015250565b7f6f6e6c7920636f6e7472616374206f776e65722063616e206368616e6765206f60008201527f776e657273686970000000000000000000000000000000000000000000000000602082015250565b7f6f6e6c79206c6f636b65722068696d73656c662063616e20756e6c6f636b207460008201527f686973204e465400000000000000000000000000000000000000000000000000602082015250565b7f6f6e6c79206f776e65722063616e20616c6c6f6361746520696e636f6d65207460008201527f6f6b656e73000000000000000000000000000000000000000000000000000000602082015250565b7f746865204e4654206973206e6f74207374616b656420696e20706f6f6c000000600082015250565b7f746865207072696365206e65656420746f20626520706f736974697665000000600082015250565b7f6f6e6c79206f776e65722063616e206e6f6d696e617465206f7261636c650000600082015250565b7f6f6e6c7920636f6e7472616374206f776e65722063616e206368616e6765206660008201527f6565207261746500000000000000000000000000000000000000000000000000602082015250565b7f6f6e6c7920636f6e7472616374206f776e65722063616e2072656c656173652060008201527f6c6f636b6564204e465400000000000000000000000000000000000000000000602082015250565b61329281612dc1565b811461329d57600080fd5b50565b6132a981612dd3565b81146132b457600080fd5b50565b6132c081612ddf565b81146132cb57600080fd5b50565b6132d781612e15565b81146132e257600080fd5b50565b6132ee81612e47565b81146132f957600080fd5b5056fea2646970667358221220ffb8d13b3de80a50f9f6824b9a9f67c932409b3ab4044aa43f2c19d5f73331a164736f6c63430008020033",
  "immutableReferences": {},
  "source": "//SPDX-License-Identifier: MI\n\npragma solidity ^0.8.0;\nimport \"@openzeppelin/contracts/token/ERC721/IERC721.sol\";\nimport \"@openzeppelin/contracts/token/ERC721/IERC721Receiver.sol\";\nimport \"./FUSD.sol\";\nimport \"./LocalOracle.sol\";\n\n// !!Q?\n// how to submit the requestPrice without involving PriceOracle.sol in\n// Answer: store price inside the oracle, every time when need a price, just read it from oracle contract\n\n/** V1\n\n *  all transactions are transfered to the contract itself, and the owner can distribute through <allocate>\n * locking period can is set to be 3e6 blocks(about 40 days), every block would be extraly charged at\n * min(lock price, unlock price) * 1e(-8), and would be charged at unlocking\n * inside which only the locker himself can redeem this NFT\n * after that the lcoked NFT would be released into public pool\n * \n * all data is discounted at 10 ** baseDecimal, e.g. feeRate multiply with 10 * baseDecimal render the actual result\n\n * Current questions\n * one can not sign <approve> inside the contract\n\n*/\ncontract FurionPool is IERC721Receiver{\n    string public name =  \"NFT Liquidity Pool\";\n    uint8 baseDecimal = 8;\n    address public owner;\n    LocalOracle public oracle;\n\n    FUSD public fUSD; // fUSD token\n    uint public stakeFeeRate; // stake fee rate, charged at staking time, real rate * 10 ** 8 as result\n    uint public lockFeeRate; // lock fee rate, charged at locking time, real rate * 10 ** 8 as result\n    uint public lockBlockCharge; // lock block fee, charged for every locked block, real rate * 10 ** 8 as result\n\n    mapping(bytes32 => bool) public StakedInPool; // whether a NFT staked in pool\n    mapping(bytes32 => bool) public LockedInPool; // whether a NFT locked in pool\n    mapping(bytes32 => uint) public LockedBlockNumber; // when the NFT is locked in pool\n    mapping(bytes32 => address) public Locker; // locker of the locked NFT\n\n    /**\n     * locked NFT in pool. user => NFT address => token id collection\n     * if one token id appears in odd numbers, then it is locked, otherwise it is not locked.\n     * under this settings, we will not have to remove one token id when it is unlocked from pool\n     */\n    mapping(address => mapping(address => uint256[])) public lockingNFT;\n\n    /**\n     * staked NFT in pool. NFT address => token id collection\n     * also if one token id appears in odd number, then it is indeed staked in pool\n     */\n    mapping(address => uint256[]) public stakingNFT;\n\n    event LinkOracle(LocalOracle oracle);\n    event StakeNFT(address indexed _from, address _nftAddress, uint256 _tokenId, uint _value);\n    event LockNFT(address indexed _from, address _nftAddress, uint256 _tokenId, uint _value);\n    event ReleaseNFT(address indexed _locker, address _nftAddress, uint256 _tokenId);\n    event WithdrawNFT(address indexed _to, address _nftAddress, uint256 _tokenId, uint _value);\n\n    constructor(FUSD _fUSD, uint _stakeFeeRate, uint _lockFeeRate, uint _lockBlockCharge){\n        owner = msg.sender;\n        fUSD = _fUSD;\n        stakeFeeRate = _stakeFeeRate;\n        lockFeeRate = _lockFeeRate;\n        lockBlockCharge = _lockBlockCharge;\n    }\n\n    function linkOracle(LocalOracle _oracle) public{\n        require(msg.sender == owner, 'only owner can nominate oracle');\n        oracle = _oracle;\n        emit LinkOracle(_oracle);\n    }\n\n    function stakeNFT(address _nftAddress, uint256 _tokenId) public{\n        // first try to transfer NFT to pool\n        address sender = msg.sender;\n        IERC721 nftContract =  IERC721(_nftAddress);\n        // require(nftContract.ownerOf() == sender, \"only NFT owner can stake\");\n\n        // msg.sender approve and then transfer such NFT to pool\n        // nftContract.approve(address(this), _tokenId); // seems impossible to implement\n        nftContract.safeTransferFrom(msg.sender, address(this), _tokenId);\n\n        bytes32 fixedNFT = keccak256(abi.encodePacked(_nftAddress, _tokenId));\n        StakedInPool[fixedNFT] = true;\n\n        uint256 nftPrice = oracle.NFTPrice(_nftAddress, _tokenId);\n        require(nftPrice > 0, 'the price need to be positive');\n\n        // push this token id into pool's collection\n        stakingNFT[_nftAddress].push(_tokenId);\n\n        // calculate stakeFee based on stakeFeeRate, then mintValue to msg.sender, stakeFee to owner\n        uint stakeFee = nftPrice * stakeFeeRate;\n        uint mintValue = nftPrice * (10 ** baseDecimal - stakeFeeRate);\n        fUSD.mint(sender, mintValue);\n        fUSD.mint(address(this), stakeFee);\n        emit StakeNFT(sender, _nftAddress, _tokenId, mintValue);\n    }\n\n    function unstakeNFT(address _nftAddress, uint256 _tokenId) public{\n        // unstake NFT from pool. receiver, nFTAddress, tokenID required\n        bytes32 fixedNFT = keccak256(abi.encodePacked(_nftAddress, _tokenId));\n        require(StakedInPool[fixedNFT], \"the NFT is not staked in pool\");\n\n        uint256 nftPrice = oracle.NFTPrice(_nftAddress, _tokenId);\n        require(nftPrice > 0, 'the price need to be positive');\n        uint256 burnValue = nftPrice * 10 ** baseDecimal;\n\n        // burn fUSD token and transfer fixedNFT to recepient\n        fUSD.burnFrom(msg.sender, burnValue);\n        IERC721 nftContract = IERC721(_nftAddress);\n        nftContract.safeTransferFrom(address(this), msg.sender, _tokenId);\n\n        // push this token id into pool's collection, it turns from odd to even\n        stakingNFT[_nftAddress].push(_tokenId);\n\n        // update state variables in contract\n        StakedInPool[fixedNFT] = false;\n        emit WithdrawNFT(msg.sender, _nftAddress, _tokenId, burnValue);\n    }\n\n    function lockNFT(address _nftAddress, uint256 _tokenId) public{\n        IERC721 nftContract =  IERC721(_nftAddress);\n\n        // msg.sender approve and then transfer such NFT to pool\n        // nftContract.approve(address(this), _tokenId);\n        nftContract.safeTransferFrom(msg.sender, address(this), _tokenId);\n\n        // store the locked NFT into pool collection\n        bytes32 lockedNFT = keccak256(abi.encodePacked(_nftAddress, _tokenId));\n        LockedInPool[lockedNFT] = true;\n        Locker[lockedNFT] = msg.sender;\n        LockedBlockNumber[lockedNFT] = block.number;\n\n        // store this token id into lockedNFT\n        lockingNFT[msg.sender][_nftAddress].push(_tokenId);\n\n        // lock fee to owner, and mintValue to msg.sender\n        uint256 nftPrice = oracle.NFTPrice(_nftAddress, _tokenId);\n        require(nftPrice > 0, 'the price need to be positive');\n        uint lockFee = nftPrice * lockFeeRate;\n        // balanceOfMargin[msg.sender] = margin;\n        uint mintValue = nftPrice * (10 ** baseDecimal - lockFeeRate);\n        fUSD.mint(address(this), lockFee);\n        fUSD.mint(msg.sender, mintValue);\n        emit LockNFT(msg.sender, _nftAddress, _tokenId, mintValue);\n    }\n\n    function unlockNFT(address _nftAddress, uint256 _tokenId) public{\n        bytes32 fixedNFT = keccak256(abi.encodePacked(_nftAddress, _tokenId));\n        require(LockedInPool[fixedNFT], \"the NFT is not locked in pool\");\n        require(Locker[fixedNFT] == msg.sender, \"only locker himself can unlock this NFT\");\n\n        uint256 nftPrice = oracle.NFTPrice(_nftAddress, _tokenId);\n        require(nftPrice > 0, 'the price need to be positive');\n\n        uint lockFee = (block.number - LockedBlockNumber[fixedNFT]) * lockBlockCharge * nftPrice;\n        uint burnValue = lockFee + nftPrice * 10 ** baseDecimal;\n        // burn fUSD token and transfer fixedNFT to recepient\n        fUSD.burnFrom(msg.sender, burnValue);\n        IERC721 nftContract = IERC721(_nftAddress);\n        nftContract.safeTransferFrom(address(this), msg.sender, _tokenId);\n\n        // store this token id into lockedNFT\n        lockingNFT[msg.sender][_nftAddress].push(_tokenId);\n\n        // update state variables in contract\n        LockedInPool[fixedNFT] = false;\n        emit WithdrawNFT(msg.sender, _nftAddress, _tokenId, burnValue);\n    }\n\n    function releaseNFT(address _nftAddress, uint256 _tokenId) public{\n        // owner can release locked NFT into staking pool after 1e6 blocks\n        require(msg.sender == owner, \"only contract owner can release locked NFT\");\n        bytes32 fixedNFT = keccak256(abi.encodePacked(_nftAddress, _tokenId));\n        require(LockedInPool[fixedNFT], \"the NFT is not locked in pool\");\n        require(block.number - LockedBlockNumber[fixedNFT] >= 3 * 10 ** 6, \"the lock is stiil valid\");\n\n        // change this NFT from being locked to being staked\n        LockedInPool[fixedNFT] = false;\n        StakedInPool[fixedNFT] = true;\n        \n        // store this token id into lockedNFT\n        lockingNFT[msg.sender][_nftAddress].push(_tokenId);\n        stakingNFT[_nftAddress].push(_tokenId);\n\n        emit ReleaseNFT(Locker[fixedNFT], _nftAddress, _tokenId);\n    }\n\n    function allocate(address _to, uint256 _amount) public{\n        require(msg.sender == owner, \"only owner can allocate income tokens\");\n        fUSD.transfer(_to, _amount);\n    }\n\n    function changeStakeFeeRate(uint256 _stakeFeeRate) public{\n        require(msg.sender == owner, \"only contract owner can change fee rate\");\n        stakeFeeRate = _stakeFeeRate;\n    }\n\n    function changeLockDailyCharge(uint256 _lockFeeRate) public{\n        require(msg.sender == owner, \"only contract owner can change fee rate\");\n        lockFeeRate = _lockFeeRate;\n    }\n\n    function changeLockFeeRate(uint256 _lockBlockCharge) public{\n        require(msg.sender == owner, \"only contract owner can change fee rate\");\n        lockBlockCharge = _lockBlockCharge;\n    }\n\n    function changeOwner(address _newOwner) public{\n        require(msg.sender == owner, \"only contract owner can change ownership\");\n        owner = _newOwner;\n    }\n\n    function onERC721Received(address, address, uint256, bytes memory) public virtual override returns (bytes4) {\n        return this.onERC721Received.selector;\n    }\n\n    function viewStakingNFT(address _nftAddress) external view returns (uint256[] memory) {\n        return stakingNFT[_nftAddress];\n    }\n\n    function viewLockingNFT(address _userAddress, address _nftAddress) external view returns (uint256[] memory) {\n        return lockingNFT[_userAddress][_nftAddress];\n    }\n}",
  "sourcePath": "/Users/sthmax/Desktop/Homepage/Furion-Interface/contracts/FurionPool.sol",
  "compiler": {
    "name": "solc",
    "version": "0.8.2+commit.661d1103.Emscripten.clang"
  },
  "schemaVersion": "3.4.3",
  "updatedAt": "2021-11-24T08:19:36.805Z",
  "networkType": "ethereum",
  "devdoc": {
    "kind": "dev",
    "methods": {},
    "version": 1
  },
  "userdoc": {
    "kind": "user",
    "methods": {
      "lockingNFT(address,address,uint256)": {
        "notice": "locked NFT in pool. user => NFT address => token id collection if one token id appears in odd numbers, then it is locked, otherwise it is not locked. under this settings, we will not have to remove one token id when it is unlocked from pool"
      },
      "stakingNFT(address,uint256)": {
        "notice": "staked NFT in pool. NFT address => token id collection also if one token id appears in odd number, then it is indeed staked in pool"
      }
    },
    "notice": "V1  all transactions are transfered to the contract itself, and the owner can distribute through <allocate> locking period can is set to be 3e6 blocks(about 40 days), every block would be extraly charged at min(lock price, unlock price) * 1e(-8), and would be charged at unlocking inside which only the locker himself can redeem this NFT after that the lcoked NFT would be released into public pool  all data is discounted at 10 ** baseDecimal, e.g. feeRate multiply with 10 * baseDecimal render the actual result Current questions one can not sign <approve> inside the contract",
    "version": 1
  }
}