{
  "contractName": "LocalOracle",
  "abi": [
    {
      "inputs": [],
      "stateMutability": "nonpayable",
      "type": "constructor"
    },
    {
      "anonymous": false,
      "inputs": [
        {
          "indexed": false,
          "internalType": "address",
          "name": "_nftAddress",
          "type": "address"
        },
        {
          "indexed": false,
          "internalType": "uint256",
          "name": "_tokenId",
          "type": "uint256"
        },
        {
          "indexed": false,
          "internalType": "uint256",
          "name": "_newPrice",
          "type": "uint256"
        }
      ],
      "name": "UpdatePrice",
      "type": "event"
    },
    {
      "inputs": [
        {
          "internalType": "address",
          "name": "",
          "type": "address"
        },
        {
          "internalType": "uint256",
          "name": "",
          "type": "uint256"
        }
      ],
      "name": "NFTPrice",
      "outputs": [
        {
          "internalType": "uint256",
          "name": "",
          "type": "uint256"
        }
      ],
      "stateMutability": "view",
      "type": "function",
      "constant": true
    },
    {
      "inputs": [],
      "name": "owner",
      "outputs": [
        {
          "internalType": "address",
          "name": "",
          "type": "address"
        }
      ],
      "stateMutability": "view",
      "type": "function",
      "constant": true
    },
    {
      "inputs": [
        {
          "internalType": "address",
          "name": "_nftAddress",
          "type": "address"
        },
        {
          "internalType": "uint256",
          "name": "_tokenId",
          "type": "uint256"
        },
        {
          "internalType": "uint256",
          "name": "_price",
          "type": "uint256"
        }
      ],
      "name": "setPrice",
      "outputs": [],
      "stateMutability": "nonpayable",
      "type": "function"
    },
    {
      "inputs": [
        {
          "internalType": "address",
          "name": "_nftAddress",
          "type": "address"
        },
        {
          "internalType": "uint256",
          "name": "_tokenId",
          "type": "uint256"
        }
      ],
      "name": "viewPrice",
      "outputs": [
        {
          "internalType": "uint256",
          "name": "",
          "type": "uint256"
        }
      ],
      "stateMutability": "view",
      "type": "function",
      "constant": true
    }
  ],
  "bytecode": "0x608060405234801561001057600080fd5b50336000806101000a81548173ffffffffffffffffffffffffffffffffffffffff021916908373ffffffffffffffffffffffffffffffffffffffff1602179055506105be806100606000396000f3fe608060405234801561001057600080fd5b506004361061004c5760003560e01c80633011e16a146100515780633aac0ebe1461006d5780638da5cb5b1461009d578063949c4fa3146100bb575b600080fd5b61006b6004803603810190610066919061035b565b6100eb565b005b6100876004803603810190610082919061031f565b610251565b60405161009491906104a0565b60405180910390f35b6100a5610276565b6040516100b2919061040e565b60405180910390f35b6100d560048036038101906100d0919061031f565b61029a565b6040516100e291906104a0565b60405180910390f35b60008054906101000a900473ffffffffffffffffffffffffffffffffffffffff1673ffffffffffffffffffffffffffffffffffffffff163373ffffffffffffffffffffffffffffffffffffffff1614610179576040517f08c379a000000000000000000000000000000000000000000000000000000000815260040161017090610480565b60405180910390fd5b600081116101bc576040517f08c379a00000000000000000000000000000000000000000000000000000000081526004016101b390610460565b60405180910390fd5b80600160008573ffffffffffffffffffffffffffffffffffffffff1673ffffffffffffffffffffffffffffffffffffffff1681526020019081526020016000206000848152602001908152602001600020819055507f7c3bda8adcb9df1edd0059da351d966538bcc99f067c0770872170ac97fb688783838360405161024493929190610429565b60405180910390a1505050565b6001602052816000526040600020602052806000526040600020600091509150505481565b60008054906101000a900473ffffffffffffffffffffffffffffffffffffffff1681565b6000600160008473ffffffffffffffffffffffffffffffffffffffff1673ffffffffffffffffffffffffffffffffffffffff168152602001908152602001600020600083815260200190815260200160002054905092915050565b6000813590506103048161055a565b92915050565b60008135905061031981610571565b92915050565b6000806040838503121561033257600080fd5b6000610340858286016102f5565b92505060206103518582860161030a565b9150509250929050565b60008060006060848603121561037057600080fd5b600061037e868287016102f5565b935050602061038f8682870161030a565b92505060406103a08682870161030a565b9150509250925092565b6103b3816104cc565b82525050565b60006103c66019836104bb565b91506103d182610508565b602082019050919050565b60006103e96018836104bb565b91506103f482610531565b602082019050919050565b610408816104fe565b82525050565b600060208201905061042360008301846103aa565b92915050565b600060608201905061043e60008301866103aa565b61044b60208301856103ff565b61045860408301846103ff565b949350505050565b60006020820190508181036000830152610479816103b9565b9050919050565b60006020820190508181036000830152610499816103dc565b9050919050565b60006020820190506104b560008301846103ff565b92915050565b600082825260208201905092915050565b60006104d7826104de565b9050919050565b600073ffffffffffffffffffffffffffffffffffffffff82169050919050565b6000819050919050565b7f7072696365206e65656420746f20626520706f73697469766500000000000000600082015250565b7f6f6e6c79206f776e65722063616e207365742070726963650000000000000000600082015250565b610563816104cc565b811461056e57600080fd5b50565b61057a816104fe565b811461058557600080fd5b5056fea26469706673582212207f9808bca1ac5aa118dba3ed968bb7bf1a2cff07628ddad0b6fa4dfca330f94964736f6c63430008020033",
  "immutableReferences": {},
  "source": "// SPDX-License-Identifier: MIT\npragma solidity ^0.8.0;\n\ncontract LocalOracle{\n    \n    address public owner;\n\n    mapping(address => mapping(uint256 => uint256)) public NFTPrice;\n\n    event UpdatePrice(address _nftAddress, uint256 _tokenId, uint256 _newPrice);\n\n    constructor(){\n        owner = msg.sender;\n    }\n\n    /* \n     * owner can call this function to set price, need to * 10 ** 10 when transfer to the contract\n    */\n    function setPrice(address _nftAddress, uint256 _tokenId, uint256 _price) external{\n        require(msg.sender == owner, 'only owner can set price');\n        require(_price > 0, 'price need to be positive');\n        NFTPrice[_nftAddress][_tokenId] = _price;\n        emit UpdatePrice(_nftAddress, _tokenId, _price);\n    }\n\n    function viewPrice(address _nftAddress, uint256 _tokenId) view external returns (uint256){\n        return NFTPrice[_nftAddress][_tokenId];\n    }\n}\n\n",
  "sourcePath": "/Users/shangzh//Furion/Furion-Interface/contracts/LocalOracle.sol",
  "compiler": {
    "name": "solc",
    "version": "0.8.2+commit.661d1103.Emscripten.clang"
  },
  "schemaVersion": "3.4.3",
  "updatedAt": "2021-11-08T04:57:07.439Z",
  "networkType": "ethereum",
  "devdoc": {
    "kind": "dev",
    "methods": {},
    "version": 1
  },
  "userdoc": {
    "kind": "user",
    "methods": {},
    "version": 1
  }
}